{
  "address": "0x5bB9e65023782945ef56a97C68B8Acadb8ADFb2A",
  "abi": [
    {
      "anonymous": false,
      "inputs": [
        {
          "indexed": true,
          "internalType": "uint256[2]",
          "name": "pederssenPoint",
          "type": "uint256[2]"
        },
        {
          "indexed": true,
          "internalType": "address",
          "name": "from",
          "type": "address"
        }
      ],
      "name": "Verified",
      "type": "event"
    },
    {
      "inputs": [
        {
          "internalType": "uint256[2]",
          "name": "a",
          "type": "uint256[2]"
        },
        {
          "internalType": "uint256[2][2]",
          "name": "b",
          "type": "uint256[2][2]"
        },
        {
          "internalType": "uint256[2]",
          "name": "c",
          "type": "uint256[2]"
        },
        {
          "internalType": "uint256[1]",
          "name": "input",
          "type": "uint256[1]"
        },
        {
          "internalType": "uint256[2]",
          "name": "pedersen",
          "type": "uint256[2]"
        }
      ],
      "name": "verifyProof",
      "outputs": [
        {
          "internalType": "bool",
          "name": "r",
          "type": "bool"
        }
      ],
      "stateMutability": "nonpayable",
      "type": "function"
    }
  ],
  "transactionHash": "0x1118ead108ba06d0efee689a3e0e5a72cdc664c49e0175348e7706cc15925082",
  "args": [],
  "numDeployments": 1,
  "solcInputHash": "e8f5eb4f0ada6d4bf0673f6252d512fd",
  "bytecode": "0x608060405234801561001057600080fd5b50611348806100206000396000f3fe608060405234801561001057600080fd5b506004361061002b5760003560e01c80631c5fd95c14610030575b600080fd5b610199600480360361016081101561004757600080fd5b8101908080604001906002806020026040519081016040528092919082600260200280828437600081840152601f19601f82011690508083019250505050505091929192908060800190600280602002604051908101604052809291906000905b828210156100fc578382604002016002806020026040519081016040528092919082600260200280828437600081840152601f19601f820116905080830192505050505050815260200190600101906100a8565b50505050919291929080604001906002806020026040519081016040528092919082600260200280828437600081840152601f19601f820116905080830192505050505050919291929080602001906001806020026040519081016040528092919082600160200280828437600081840152601f19601f8201169050808301925050505050509192919290806040019091929192905050506101b3565b604051808215151515815260200191505060405180910390f35b60006101bd6111d0565b6040518060400160405280886000600281106101d557fe5b60200201518152602001886001600281106101ec57fe5b60200201518152508160000181905250604051806040016040528060405180604001604052808960006002811061021f57fe5b602002015160006002811061023057fe5b602002015181526020018960006002811061024757fe5b602002015160016002811061025857fe5b6020020151815250815260200160405180604001604052808960016002811061027d57fe5b602002015160006002811061028e57fe5b60200201518152602001896001600281106102a557fe5b60200201516001600281106102b657fe5b602002015181525081525081602001819052506040518060400160405280866000600281106102e157fe5b60200201518152602001866001600281106102f857fe5b602002015181525081604001819052506060600167ffffffffffffffff8111801561032257600080fd5b506040519080825280602002602001820160405280156103515781602001602082028036833780820191505090505b50905060008090505b60018110156103995785816001811061036f57fe5b602002015182828151811061038057fe5b602002602001018181525050808060010191505061035a565b5060006103a6828461042b565b141561041b573373ffffffffffffffffffffffffffffffffffffffff168460405180826002602002808284378083019250505091505060405180910390207f05babc5b04bc8299ad4a275a99fba805bd8f03085957edfb04dd9c2ed6fb5f4f60405160405180910390a3600192505050610422565b6000925050505b95945050505050565b6000807f30644e72e131a029b85045b68181585d2833e84879b9709143e1f593f00000019050610459611203565b61046161065f565b90508060800151516001865101146104e1576040517f08c379a00000000000000000000000000000000000000000000000000000000081526004018080602001828103825260128152602001807f76657269666965722d6261642d696e707574000000000000000000000000000081525060200191505060405180910390fd5b6104e961124a565b6040518060400160405280600081526020016000815250905060008090505b86518110156105e8578387828151811061051e57fe5b602002602001015110610599576040517f08c379a000000000000000000000000000000000000000000000000000000000815260040180806020018281038252601f8152602001807f76657269666965722d6774652d736e61726b2d7363616c61722d6669656c640081525060200191505060405180910390fd5b6105d9826105d4856080015160018501815181106105b357fe5b60200260200101518a85815181106105c757fe5b6020026020010151610a53565b610b4e565b91508080600101915050610508565b5061060b8183608001516000815181106105fe57fe5b6020026020010151610b4e565b905061064161061d8660000151610c68565b8660200151846000015185602001518587604001518b604001518960600151610d02565b6106515760019350505050610659565b600093505050505b92915050565b610667611203565b60405180604001604052807f2d4d9aa7e302d9df41749d5507949d05dbea33fbb16c643b22f599a2be6df2e281526020017f14bedd503c37ceb061d8ec60209fe345ce89830a19230301f076caff004d19268152508160000181905250604051806040016040528060405180604001604052807f0967032fcbf776d1afc985f88877f182d38480a653f2decaa9794cbc3bf3060c81526020017f0e187847ad4c798374d0d6732bf501847dd68bc0e071241e0213bc7fc13db7ab815250815260200160405180604001604052807f304cfbd1e08a704a99f5e847d93f8c3caafddec46b7a0d379da69a4d112346a781526020017f1739c1b1a457a8c7313123d24d2f9192f896b7c63eea05a9d57f06547ad0cec88152508152508160200181905250604051806040016040528060405180604001604052807f198e9393920d483a7260bfb731fb5d25f1aa493335a9e71297e485b7aef312c281526020017f1800deef121f1e76426a00665e5c4479674322d4f75edadd46debd5cd992f6ed815250815260200160405180604001604052807f090689d0585ff075ec9e99ad690c3395bc4b313370b38ef355acdadcd122975b81526020017f12c85ea5db8c6deb4aab71808dcb408fe3d1e7690c43d37b4ce6cc0166fa7daa8152508152508160400181905250604051806040016040528060405180604001604052807f198e9393920d483a7260bfb731fb5d25f1aa493335a9e71297e485b7aef312c281526020017f1800deef121f1e76426a00665e5c4479674322d4f75edadd46debd5cd992f6ed815250815260200160405180604001604052807f090689d0585ff075ec9e99ad690c3395bc4b313370b38ef355acdadcd122975b81526020017f12c85ea5db8c6deb4aab71808dcb408fe3d1e7690c43d37b4ce6cc0166fa7daa8152508152508160600181905250600267ffffffffffffffff8111801561092b57600080fd5b5060405190808252806020026020018201604052801561096557816020015b61095261124a565b81526020019060019003908161094a5790505b50816080018190525060405180604001604052807f17efeff91bb36c562b75a5b59eddbadb3575a4e5656aad22c12771ee707aa00d81526020017f04d0813d27fa38f4c15d11f82f5c186d178fe60a2d67de5ae00179b2395f089381525081608001516000815181106109d457fe5b602002602001018190525060405180604001604052807f128c13ec2b040c1e18ac0ed16090b5d9c7787592750ef7414b4e785f8fd6621581526020017f1f0e565584226e8d21ba9d30f38bd96d4ccb6ce72c4e72a7d1d79a104caf43f58152508160800151600181518110610a4557fe5b602002602001018190525090565b610a5b61124a565b610a63611264565b836000015181600060038110610a7557fe5b602002018181525050836020015181600160038110610a9057fe5b6020020181815250508281600260038110610aa757fe5b602002018181525050600060608360808460076107d05a03fa90508060008114610ad057610ad2565bfe5b5080610b46576040517f08c379a00000000000000000000000000000000000000000000000000000000081526004018080602001828103825260128152602001807f70616972696e672d6d756c2d6661696c6564000000000000000000000000000081525060200191505060405180910390fd5b505092915050565b610b5661124a565b610b5e611286565b836000015181600060048110610b7057fe5b602002018181525050836020015181600160048110610b8b57fe5b602002018181525050826000015181600260048110610ba657fe5b602002018181525050826020015181600360048110610bc157fe5b602002018181525050600060608360c08460066107d05a03fa90508060008114610bea57610bec565bfe5b5080610c60576040517f08c379a00000000000000000000000000000000000000000000000000000000081526004018080602001828103825260128152602001807f70616972696e672d6164642d6661696c6564000000000000000000000000000081525060200191505060405180910390fd5b505092915050565b610c7061124a565b60007f30644e72e131a029b85045b68181585d97816a916871ca8d3c208c16d87cfd47905060008360000151148015610cad575060008360200151145b15610cd1576040518060400160405280600081526020016000815250915050610cfd565b60405180604001604052808460000151815260200182856020015181610cf357fe5b0683038152509150505b919050565b60006060600467ffffffffffffffff81118015610d1e57600080fd5b50604051908082528060200260200182016040528015610d5857816020015b610d4561124a565b815260200190600190039081610d3d5790505b5090506060600467ffffffffffffffff81118015610d7557600080fd5b50604051908082528060200260200182016040528015610daf57816020015b610d9c6112a8565b815260200190600190039081610d945790505b5090508a82600081518110610dc057fe5b60200260200101819052508882600181518110610dd957fe5b60200260200101819052508682600281518110610df257fe5b60200260200101819052508482600381518110610e0b57fe5b60200260200101819052508981600081518110610e2457fe5b60200260200101819052508781600181518110610e3d57fe5b60200260200101819052508581600281518110610e5657fe5b60200260200101819052508381600381518110610e6f57fe5b6020026020010181905250610e848282610e94565b9250505098975050505050505050565b60008151835114610f0d576040517f08c379a00000000000000000000000000000000000000000000000000000000081526004018080602001828103825260168152602001807f70616972696e672d6c656e677468732d6661696c65640000000000000000000081525060200191505060405180910390fd5b600083519050600060068202905060608167ffffffffffffffff81118015610f3457600080fd5b50604051908082528060200260200182016040528015610f635781602001602082028036833780820191505090505b50905060008090505b8381101561110957868181518110610f8057fe5b602002602001015160000151826000600684020181518110610f9e57fe5b602002602001018181525050868181518110610fb657fe5b602002602001015160200151826001600684020181518110610fd457fe5b602002602001018181525050858181518110610fec57fe5b60200260200101516000015160006002811061100457fe5b602002015182600260068402018151811061101b57fe5b60200260200101818152505085818151811061103357fe5b60200260200101516000015160016002811061104b57fe5b602002015182600360068402018151811061106257fe5b60200260200101818152505085818151811061107a57fe5b60200260200101516020015160006002811061109257fe5b60200201518260046006840201815181106110a957fe5b6020026020010181815250508581815181106110c157fe5b6020026020010151602001516001600281106110d957fe5b60200201518260056006840201815181106110f057fe5b6020026020010181815250508080600101915050610f6c565b506111126112ce565b6000602082602086026020860160086107d05a03fa9050806000811461113757611139565bfe5b50806111ad576040517f08c379a00000000000000000000000000000000000000000000000000000000081526004018080602001828103825260158152602001807f70616972696e672d6f70636f64652d6661696c6564000000000000000000000081525060200191505060405180910390fd5b6000826000600181106111bc57fe5b602002015114159550505050505092915050565b60405180606001604052806111e361124a565b81526020016111f06112a8565b81526020016111fd61124a565b81525090565b6040518060a0016040528061121661124a565b81526020016112236112a8565b81526020016112306112a8565b815260200161123d6112a8565b8152602001606081525090565b604051806040016040528060008152602001600081525090565b6040518060600160405280600390602082028036833780820191505090505090565b6040518060800160405280600490602082028036833780820191505090505090565b60405180604001604052806112bb6112f0565b81526020016112c86112f0565b81525090565b6040518060200160405280600190602082028036833780820191505090505090565b604051806040016040528060029060208202803683378082019150509050509056fea26469706673582212202f96d72e2e5696df8486655ba7d10982b27f2e8f4694722b5533e7095e352cbb64736f6c634300060b0033",
  "devdoc": {
    "kind": "dev",
    "methods": {
      "verifyProof(uint256[2],uint256[2][2],uint256[2],uint256[1],uint256[2])": {
        "returns": {
          "r": " bool true if proof is valid"
        }
      }
    },
    "version": 1
  },
  "userdoc": {
    "kind": "user",
    "methods": {},
    "version": 1
  },
  "storageLayout": {
    "storage": [],
    "types": null
  }
}