{
  "address": "0x30b347D381D349792A5F6f55Eb912Ae0B4C017b4",
  "abi": [
    {
      "anonymous": false,
      "inputs": [
        {
          "indexed": true,
          "internalType": "bool",
          "name": "isVerified",
          "type": "bool"
        },
        {
          "indexed": true,
          "internalType": "address",
          "name": "user",
          "type": "address"
        },
        {
          "indexed": true,
          "internalType": "uint256[21]",
          "name": "input",
          "type": "uint256[21]"
        }
      ],
      "name": "IsVerified",
      "type": "event"
    },
    {
      "inputs": [
        {
          "internalType": "uint256[2]",
          "name": "a",
          "type": "uint256[2]"
        },
        {
          "internalType": "uint256[2][2]",
          "name": "b",
          "type": "uint256[2][2]"
        },
        {
          "internalType": "uint256[2]",
          "name": "c",
          "type": "uint256[2]"
        },
        {
          "internalType": "uint256[21]",
          "name": "input",
          "type": "uint256[21]"
        }
      ],
      "name": "verifyProof",
      "outputs": [
        {
          "internalType": "bool",
          "name": "r",
          "type": "bool"
        }
      ],
      "stateMutability": "nonpayable",
      "type": "function"
    }
  ],
  "transactionHash": "0x4967b2fb226dab7c616b7169860c75fa4ff8b7d2e11381ed7971568e4848884c",
  "args": [],
  "numDeployments": 2,
  "solcInputHash": "8a00d3a50c275c5188b9f71fa7ae6472",
  "bytecode": "0x608060405234801561001057600080fd5b50611cb6806100206000396000f3fe608060405234801561001057600080fd5b506004361061002b5760003560e01c80635debc07e14610030575b600080fd5b61019060048036036103a081101561004757600080fd5b8101908080604001906002806020026040519081016040528092919082600260200280828437600081840152601f19601f82011690508083019250505050505091929192908060800190600280602002604051908101604052809291906000905b828210156100fc578382604002016002806020026040519081016040528092919082600260200280828437600081840152601f19601f820116905080830192505050505050815260200190600101906100a8565b50505050919291929080604001906002806020026040519081016040528092919082600260200280828437600081840152601f19601f8201169050808301925050505050509192919290806102a001906015806020026040519081016040528092919082601560200280828437600081840152601f19601f82011690508083019250505050505091929192905050506101aa565b604051808215151515815260200191505060405180910390f35b60006101b4611b3e565b6040518060400160405280876000600281106101cc57fe5b60200201518152602001876001600281106101e357fe5b60200201518152508160000181905250604051806040016040528060405180604001604052808860006002811061021657fe5b602002015160006002811061022757fe5b602002015181526020018860006002811061023e57fe5b602002015160016002811061024f57fe5b6020020151815250815260200160405180604001604052808860016002811061027457fe5b602002015160006002811061028557fe5b602002015181526020018860016002811061029c57fe5b60200201516001600281106102ad57fe5b602002015181525081525081602001819052506040518060400160405280856000600281106102d857fe5b60200201518152602001856001600281106102ef57fe5b602002015181525081604001819052506060601567ffffffffffffffff8111801561031957600080fd5b506040519080825280602002602001820160405280156103485781602001602082028036833780820191505090505b50905060008090505b60158110156103905784816015811061036657fe5b602002015182828151811061037757fe5b6020026020010181815250508080600101915050610351565b50600061039d82846104c7565b141561043357836040518082601560200280838360005b838110156103cf5780820151818401526020810190506103b4565b5050505090500191505060405180910390203373ffffffffffffffffffffffffffffffffffffffff16600115157f6716406fd6745de5c6002222c7a4b5ac5963a9b5b8b6aa7a455c3ef2a19df96c60405160405180910390a46001925050506104bf565b836040518082601560200280838360005b8381101561045f578082015181840152602081019050610444565b5050505090500191505060405180910390203373ffffffffffffffffffffffffffffffffffffffff16600015157f6716406fd6745de5c6002222c7a4b5ac5963a9b5b8b6aa7a455c3ef2a19df96c60405160405180910390a46000925050505b949350505050565b6000807f30644e72e131a029b85045b68181585d2833e84879b9709143e1f593f000000190506104f5611b71565b6104fd6106fb565b905080608001515160018651011461057d576040517f08c379a00000000000000000000000000000000000000000000000000000000081526004018080602001828103825260128152602001807f76657269666965722d6261642d696e707574000000000000000000000000000081525060200191505060405180910390fd5b610585611bb8565b6040518060400160405280600081526020016000815250905060008090505b865181101561068457838782815181106105ba57fe5b602002602001015110610635576040517f08c379a000000000000000000000000000000000000000000000000000000000815260040180806020018281038252601f8152602001807f76657269666965722d6774652d736e61726b2d7363616c61722d6669656c640081525060200191505060405180910390fd5b610675826106708560800151600185018151811061064f57fe5b60200260200101518a858151811061066357fe5b60200260200101516113c1565b6114bc565b915080806001019150506105a4565b506106a781836080015160008151811061069a57fe5b60200260200101516114bc565b90506106dd6106b986600001516115d6565b8660200151846000015185602001518587604001518b604001518960600151611670565b6106ed57600193505050506106f5565b600093505050505b92915050565b610703611b71565b60405180604001604052807f2d4d9aa7e302d9df41749d5507949d05dbea33fbb16c643b22f599a2be6df2e281526020017f14bedd503c37ceb061d8ec60209fe345ce89830a19230301f076caff004d19268152508160000181905250604051806040016040528060405180604001604052807f0967032fcbf776d1afc985f88877f182d38480a653f2decaa9794cbc3bf3060c81526020017f0e187847ad4c798374d0d6732bf501847dd68bc0e071241e0213bc7fc13db7ab815250815260200160405180604001604052807f304cfbd1e08a704a99f5e847d93f8c3caafddec46b7a0d379da69a4d112346a781526020017f1739c1b1a457a8c7313123d24d2f9192f896b7c63eea05a9d57f06547ad0cec88152508152508160200181905250604051806040016040528060405180604001604052807f198e9393920d483a7260bfb731fb5d25f1aa493335a9e71297e485b7aef312c281526020017f1800deef121f1e76426a00665e5c4479674322d4f75edadd46debd5cd992f6ed815250815260200160405180604001604052807f090689d0585ff075ec9e99ad690c3395bc4b313370b38ef355acdadcd122975b81526020017f12c85ea5db8c6deb4aab71808dcb408fe3d1e7690c43d37b4ce6cc0166fa7daa8152508152508160400181905250604051806040016040528060405180604001604052807f198e9393920d483a7260bfb731fb5d25f1aa493335a9e71297e485b7aef312c281526020017f1800deef121f1e76426a00665e5c4479674322d4f75edadd46debd5cd992f6ed815250815260200160405180604001604052807f090689d0585ff075ec9e99ad690c3395bc4b313370b38ef355acdadcd122975b81526020017f12c85ea5db8c6deb4aab71808dcb408fe3d1e7690c43d37b4ce6cc0166fa7daa8152508152508160600181905250601667ffffffffffffffff811180156109c757600080fd5b50604051908082528060200260200182016040528015610a0157816020015b6109ee611bb8565b8152602001906001900390816109e65790505b50816080018190525060405180604001604052807f1d184c654724841bb3dde28ba81e541963a725fb6bbe67e51ca976d7aec3964a81526020017f0e70bde1216b43ed7cc7addf9ebae4c4f569eb2c98e2a5b5db5d5678bb28f8e98152508160800151600081518110610a7057fe5b602002602001018190525060405180604001604052807f1206af61b219488b2be7336043903fb50c5dbd8c28ef28e4cab74577e27411b181526020017f2cc420c18ed37ed306387e26cfce20c1619b5982f79aac373a44c651c7de8a778152508160800151600181518110610ae157fe5b602002602001018190525060405180604001604052807f2a467c9c3df6c0f2e1c3b1457450e3fcf54cede9d90c0dfd7cb6fc4d6cdae2eb81526020017f2f984225ae3a583bf65f527796ae0ee13d21bffef6b9c92812a473b44578d6aa8152508160800151600281518110610b5257fe5b602002602001018190525060405180604001604052807f1556e8f769833ea241af3e66dd269a2e439e73bb1f8b00b256922150e2de46c081526020017f1ce206bcc8ce37d98a970fa5b8055bbafc5a87cf5719b9ae77830c36992115e28152508160800151600381518110610bc357fe5b602002602001018190525060405180604001604052807ebf527621b02af68ebe0381d4ad34dd3707553c96511435870e3b4e2662d32881526020017f1c1c58a2f851c69c968cc80ec8f7136c81bb20ed994441ab97639dc7eda90fbc8152508160800151600481518110610c3357fe5b602002602001018190525060405180604001604052807f0c9b82094c5f6f1b547027dd489f849482c88b04a5511d263412a9049e5d8a6281526020017f164aec854025c5c29442e1cc0aa0b02bdb16defd8f7585ac54f409ed408566ec8152508160800151600581518110610ca457fe5b602002602001018190525060405180604001604052807f0f97e11a52fcd3aca9a587b7b3aa7dbde95032c7e73b122cdc91f19fe42284e081526020017f169c9160bfb8c4ae7a2f63aa3a71bd1e6a5e9681a93cdc9353569c24af1f8c918152508160800151600681518110610d1557fe5b602002602001018190525060405180604001604052807f2f21747f17cf10c52db30ac29ec06d2ad4a91a193e26bf1503f9e1e3b33a426381526020017f106cb07167282c605a0a2eee947f1ba52b53f1ff23595f103392ce52346dad888152508160800151600781518110610d8657fe5b602002602001018190525060405180604001604052807f110ef007567673c5e60df7779b9327f45906775ece882cb4a15e50244aace6b781526020017f3051cc6caee7635151a3ebae75de036891edd61678d94796c9c273027aac05b08152508160800151600881518110610df757fe5b602002602001018190525060405180604001604052807f09940e4b016596fd16a7e7568b645a653ac6999db1ab7ed2eb28fe6f5d8cb5e181526020017f23df069ec388f5b09d991099c52c0e7ddb9e58186c6de9997af36b63c35147a98152508160800151600981518110610e6857fe5b602002602001018190525060405180604001604052807f04150381b70eb1029babcc5750cece62ee51bd8dfc2205ef8fa23df56c6e888081526020017f2711f97eae00373c86b64ebb0ee4c2f746041315381dbadb2f0491447f40197a8152508160800151600a81518110610ed957fe5b602002602001018190525060405180604001604052807f09a6845914b53f80f4871266e6bc82e36f17e64dbd8760e13496dcf6c234d4d281526020017f1079271a48fdb27ce0e7fc718510c604f002c9c5283d00414be0f7f9cfb47f0d8152508160800151600b81518110610f4a57fe5b602002602001018190525060405180604001604052807f148582ec8ae2584c60b085cf56b03b84b72b63e839a02c4800e72ca3d20e89f281526020017f1200f496001d679b8de63b5ef71e1ef7e19abf23d6b4a240b8455db415a50da58152508160800151600c81518110610fbb57fe5b602002602001018190525060405180604001604052807f18c6c50dc9edf9d50f27e56245f271d27aa261c63680d0fd27be44b4f2dc708181526020017f1cf5ba54b6f762f0cc7b2aee3bf95bbd2e0cda4ba3038c7d7287c3c85028667b8152508160800151600d8151811061102c57fe5b602002602001018190525060405180604001604052807f0992743f0cd6c13606ddcb654acfb4782a255c8d43712626cac420103cdb778181526020017f24b4e1870d14b21ff4410cf53fbcb64149c853ea903737fa9737f8bca4f6abcd8152508160800151600e8151811061109d57fe5b602002602001018190525060405180604001604052807f0e91937557dd91ed1a59b1ac98574c45e6724082a92ad4679d8bfbc7dd394c2681526020017f21a24269b3fffa685c30861194e041dcb86c556044903419b9a6cf610cbd42318152508160800151600f8151811061110e57fe5b602002602001018190525060405180604001604052807f14eb832e51d3acd6292fffe961cc1ebc9a9c91cc477fa5f1a1ce4688a6cce00981526020017f2c3df829e426a3da6df4c5cc416baae823796470778b8468397b8910a71d1d37815250816080015160108151811061117f57fe5b602002602001018190525060405180604001604052807f136a9c8d97987ace30ae727b5e6a223ddde520e14abba4245bb05e516ac8e2a881526020017f20d192868c184d09b939d0e86df80d3b6ad7d71fb1059fc869fc36ddd68b3c1781525081608001516011815181106111f057fe5b602002602001018190525060405180604001604052807f271236486882f9ac12c3ee8812c92884a6bbbd3b9774a9800513fcd47151154f81526020017f0109f26e9bcdfc053e932afb0a62ced3963baf6f647a2859fe7879aecdd609c2815250816080015160128151811061126157fe5b602002602001018190525060405180604001604052807f013ec2f598f6881015a6236250285a17ea14b5ec9dff0705311c26a8d33fadff81526020017f29b3dc01d7d2b98ecf33e8fcbaa47dbd97910850145f62f913f1ad03c86a687b81525081608001516013815181106112d257fe5b602002602001018190525060405180604001604052807f2b1792b9dc4bb0aade2f22ac91eaecaf3a6b7627d9d68b10dbb15d17c290705381526020017ec0817d215808100c0bb77e82dc2e3fb809d25329188445d7a0aa8f22a84ba3815250816080015160148151811061134257fe5b602002602001018190525060405180604001604052807f1a225467aac0532e36c9fdefbd7f61a9c2c2c2728f3d19a82e92ed62bfebb3cc81526020017f1990e33d446822d64b20cec55c84fbd883e6176054d63c5fb20fc5e75149f74d81525081608001516015815181106113b357fe5b602002602001018190525090565b6113c9611bb8565b6113d1611bd2565b8360000151816000600381106113e357fe5b6020020181815250508360200151816001600381106113fe57fe5b602002018181525050828160026003811061141557fe5b602002018181525050600060608360808460076107d05a03fa9050806000811461143e57611440565bfe5b50806114b4576040517f08c379a00000000000000000000000000000000000000000000000000000000081526004018080602001828103825260128152602001807f70616972696e672d6d756c2d6661696c6564000000000000000000000000000081525060200191505060405180910390fd5b505092915050565b6114c4611bb8565b6114cc611bf4565b8360000151816000600481106114de57fe5b6020020181815250508360200151816001600481106114f957fe5b60200201818152505082600001518160026004811061151457fe5b60200201818152505082602001518160036004811061152f57fe5b602002018181525050600060608360c08460066107d05a03fa905080600081146115585761155a565bfe5b50806115ce576040517f08c379a00000000000000000000000000000000000000000000000000000000081526004018080602001828103825260128152602001807f70616972696e672d6164642d6661696c6564000000000000000000000000000081525060200191505060405180910390fd5b505092915050565b6115de611bb8565b60007f30644e72e131a029b85045b68181585d97816a916871ca8d3c208c16d87cfd4790506000836000015114801561161b575060008360200151145b1561163f57604051806040016040528060008152602001600081525091505061166b565b6040518060400160405280846000015181526020018285602001518161166157fe5b0683038152509150505b919050565b60006060600467ffffffffffffffff8111801561168c57600080fd5b506040519080825280602002602001820160405280156116c657816020015b6116b3611bb8565b8152602001906001900390816116ab5790505b5090506060600467ffffffffffffffff811180156116e357600080fd5b5060405190808252806020026020018201604052801561171d57816020015b61170a611c16565b8152602001906001900390816117025790505b5090508a8260008151811061172e57fe5b6020026020010181905250888260018151811061174757fe5b6020026020010181905250868260028151811061176057fe5b6020026020010181905250848260038151811061177957fe5b6020026020010181905250898160008151811061179257fe5b602002602001018190525087816001815181106117ab57fe5b602002602001018190525085816002815181106117c457fe5b602002602001018190525083816003815181106117dd57fe5b60200260200101819052506117f28282611802565b9250505098975050505050505050565b6000815183511461187b576040517f08c379a00000000000000000000000000000000000000000000000000000000081526004018080602001828103825260168152602001807f70616972696e672d6c656e677468732d6661696c65640000000000000000000081525060200191505060405180910390fd5b600083519050600060068202905060608167ffffffffffffffff811180156118a257600080fd5b506040519080825280602002602001820160405280156118d15781602001602082028036833780820191505090505b50905060008090505b83811015611a77578681815181106118ee57fe5b60200260200101516000015182600060068402018151811061190c57fe5b60200260200101818152505086818151811061192457fe5b60200260200101516020015182600160068402018151811061194257fe5b60200260200101818152505085818151811061195a57fe5b60200260200101516000015160006002811061197257fe5b602002015182600260068402018151811061198957fe5b6020026020010181815250508581815181106119a157fe5b6020026020010151600001516001600281106119b957fe5b60200201518260036006840201815181106119d057fe5b6020026020010181815250508581815181106119e857fe5b602002602001015160200151600060028110611a0057fe5b6020020151826004600684020181518110611a1757fe5b602002602001018181525050858181518110611a2f57fe5b602002602001015160200151600160028110611a4757fe5b6020020151826005600684020181518110611a5e57fe5b60200260200101818152505080806001019150506118da565b50611a80611c3c565b6000602082602086026020860160086107d05a03fa90508060008114611aa557611aa7565bfe5b5080611b1b576040517f08c379a00000000000000000000000000000000000000000000000000000000081526004018080602001828103825260158152602001807f70616972696e672d6f70636f64652d6661696c6564000000000000000000000081525060200191505060405180910390fd5b600082600060018110611b2a57fe5b602002015114159550505050505092915050565b6040518060600160405280611b51611bb8565b8152602001611b5e611c16565b8152602001611b6b611bb8565b81525090565b6040518060a00160405280611b84611bb8565b8152602001611b91611c16565b8152602001611b9e611c16565b8152602001611bab611c16565b8152602001606081525090565b604051806040016040528060008152602001600081525090565b6040518060600160405280600390602082028036833780820191505090505090565b6040518060800160405280600490602082028036833780820191505090505090565b6040518060400160405280611c29611c5e565b8152602001611c36611c5e565b81525090565b6040518060200160405280600190602082028036833780820191505090505090565b604051806040016040528060029060208202803683378082019150509050509056fea26469706673582212209482897ebbfd400a9cea4c33895a5aac5dfcdbe09e047c1bf2ece200c0d03d4a64736f6c634300060b0033",
  "devdoc": {
    "kind": "dev",
    "methods": {
      "verifyProof(uint256[2],uint256[2][2],uint256[2],uint256[21])": {
        "returns": {
          "r": " bool true if proof is valid"
        }
      }
    },
    "version": 1
  },
  "userdoc": {
    "kind": "user",
    "methods": {},
    "version": 1
  },
  "storageLayout": {
    "storage": [],
    "types": null
  }
}