{
  "address": "0x8B39C811c9E768fa382D5e008054A9217121a9B3",
  "abi": [
    {
      "anonymous": false,
      "inputs": [
        {
          "indexed": true,
          "internalType": "bool",
          "name": "isVerified",
          "type": "bool"
        },
        {
          "indexed": true,
          "internalType": "address",
          "name": "user",
          "type": "address"
        },
        {
          "indexed": true,
          "internalType": "uint256[9]",
          "name": "input",
          "type": "uint256[9]"
        }
      ],
      "name": "IsVerified",
      "type": "event"
    },
    {
      "inputs": [
        {
          "internalType": "uint256[2]",
          "name": "a",
          "type": "uint256[2]"
        },
        {
          "internalType": "uint256[2][2]",
          "name": "b",
          "type": "uint256[2][2]"
        },
        {
          "internalType": "uint256[2]",
          "name": "c",
          "type": "uint256[2]"
        },
        {
          "internalType": "uint256[9]",
          "name": "input",
          "type": "uint256[9]"
        }
      ],
      "name": "verifyProof",
      "outputs": [
        {
          "internalType": "bool",
          "name": "r",
          "type": "bool"
        }
      ],
      "stateMutability": "nonpayable",
      "type": "function"
    }
  ],
  "transactionHash": "0xe0616c5853b6f5d6ba8ca63e2cf19e42e9898a8640477f52b4b3b60e59066d55",
  "args": [],
  "numDeployments": 3,
  "solcInputHash": "8a00d3a50c275c5188b9f71fa7ae6472",
  "bytecode": "0x608060405234801561001057600080fd5b5061176c806100206000396000f3fe608060405234801561001057600080fd5b506004361061002b5760003560e01c8063c542c93b14610030575b600080fd5b610190600480360361022081101561004757600080fd5b8101908080604001906002806020026040519081016040528092919082600260200280828437600081840152601f19601f82011690508083019250505050505091929192908060800190600280602002604051908101604052809291906000905b828210156100fc578382604002016002806020026040519081016040528092919082600260200280828437600081840152601f19601f820116905080830192505050505050815260200190600101906100a8565b50505050919291929080604001906002806020026040519081016040528092919082600260200280828437600081840152601f19601f82011690508083019250505050505091929192908061012001906009806020026040519081016040528092919082600960200280828437600081840152601f19601f82011690508083019250505050505091929192905050506101aa565b604051808215151515815260200191505060405180910390f35b60006101b46115f4565b6040518060400160405280876000600281106101cc57fe5b60200201518152602001876001600281106101e357fe5b60200201518152508160000181905250604051806040016040528060405180604001604052808860006002811061021657fe5b602002015160006002811061022757fe5b602002015181526020018860006002811061023e57fe5b602002015160016002811061024f57fe5b6020020151815250815260200160405180604001604052808860016002811061027457fe5b602002015160006002811061028557fe5b602002015181526020018860016002811061029c57fe5b60200201516001600281106102ad57fe5b602002015181525081525081602001819052506040518060400160405280856000600281106102d857fe5b60200201518152602001856001600281106102ef57fe5b602002015181525081604001819052506060600967ffffffffffffffff8111801561031957600080fd5b506040519080825280602002602001820160405280156103485781602001602082028036833780820191505090505b50905060008090505b60098110156103905784816009811061036657fe5b602002015182828151811061037757fe5b6020026020010181815250508080600101915050610351565b50600061039d82846104c7565b141561043357836040518082600960200280838360005b838110156103cf5780820151818401526020810190506103b4565b5050505090500191505060405180910390203373ffffffffffffffffffffffffffffffffffffffff16600115157f25d82901fa8b56f52783293eb8ef1796c7af3af9df552cad9ddc84e4e7772b7160405160405180910390a46001925050506104bf565b836040518082600960200280838360005b8381101561045f578082015181840152602081019050610444565b5050505090500191505060405180910390203373ffffffffffffffffffffffffffffffffffffffff16600015157f25d82901fa8b56f52783293eb8ef1796c7af3af9df552cad9ddc84e4e7772b7160405160405180910390a46000925050505b949350505050565b6000807f30644e72e131a029b85045b68181585d2833e84879b9709143e1f593f000000190506104f5611627565b6104fd6106fb565b905080608001515160018651011461057d576040517f08c379a00000000000000000000000000000000000000000000000000000000081526004018080602001828103825260128152602001807f76657269666965722d6261642d696e707574000000000000000000000000000081525060200191505060405180910390fd5b61058561166e565b6040518060400160405280600081526020016000815250905060008090505b865181101561068457838782815181106105ba57fe5b602002602001015110610635576040517f08c379a000000000000000000000000000000000000000000000000000000000815260040180806020018281038252601f8152602001807f76657269666965722d6774652d736e61726b2d7363616c61722d6669656c640081525060200191505060405180910390fd5b610675826106708560800151600185018151811061064f57fe5b60200260200101518a858151811061066357fe5b6020026020010151610e77565b610f72565b915080806001019150506105a4565b506106a781836080015160008151811061069a57fe5b6020026020010151610f72565b90506106dd6106b9866000015161108c565b8660200151846000015185602001518587604001518b604001518960600151611126565b6106ed57600193505050506106f5565b600093505050505b92915050565b610703611627565b60405180604001604052807f2d4d9aa7e302d9df41749d5507949d05dbea33fbb16c643b22f599a2be6df2e281526020017f14bedd503c37ceb061d8ec60209fe345ce89830a19230301f076caff004d19268152508160000181905250604051806040016040528060405180604001604052807f0967032fcbf776d1afc985f88877f182d38480a653f2decaa9794cbc3bf3060c81526020017f0e187847ad4c798374d0d6732bf501847dd68bc0e071241e0213bc7fc13db7ab815250815260200160405180604001604052807f304cfbd1e08a704a99f5e847d93f8c3caafddec46b7a0d379da69a4d112346a781526020017f1739c1b1a457a8c7313123d24d2f9192f896b7c63eea05a9d57f06547ad0cec88152508152508160200181905250604051806040016040528060405180604001604052807f198e9393920d483a7260bfb731fb5d25f1aa493335a9e71297e485b7aef312c281526020017f1800deef121f1e76426a00665e5c4479674322d4f75edadd46debd5cd992f6ed815250815260200160405180604001604052807f090689d0585ff075ec9e99ad690c3395bc4b313370b38ef355acdadcd122975b81526020017f12c85ea5db8c6deb4aab71808dcb408fe3d1e7690c43d37b4ce6cc0166fa7daa8152508152508160400181905250604051806040016040528060405180604001604052807f198e9393920d483a7260bfb731fb5d25f1aa493335a9e71297e485b7aef312c281526020017f1800deef121f1e76426a00665e5c4479674322d4f75edadd46debd5cd992f6ed815250815260200160405180604001604052807f090689d0585ff075ec9e99ad690c3395bc4b313370b38ef355acdadcd122975b81526020017f12c85ea5db8c6deb4aab71808dcb408fe3d1e7690c43d37b4ce6cc0166fa7daa8152508152508160600181905250600a67ffffffffffffffff811180156109c757600080fd5b50604051908082528060200260200182016040528015610a0157816020015b6109ee61166e565b8152602001906001900390816109e65790505b50816080018190525060405180604001604052807f09a1d4aa4ba2ad6fe6f183d5cd4aad4361e9bbfed720bd006f9796687141e8c481526020017f29a9a60b877fb42cec45232d38886f702f166962ffddae96bd3a3881bdf3bb8f8152508160800151600081518110610a7057fe5b602002602001018190525060405180604001604052807f2407cc616f458d278dfca4d3eaa6b50afd356aa397c9fd149b5418d1f8b302b481526020017f0741f30aa3937f9655717107a952fe748eea8e308ebff66b39b41cd9008c52e98152508160800151600181518110610ae157fe5b602002602001018190525060405180604001604052807f0cff4c46dc2d635f35c271401735081e77629f97ad8b87d724d1db9b30b952d481526020017f0b53fc50f97a91bc88f39d315cecca59b0284affbc0217be9a2b9ce6e23c06fe8152508160800151600281518110610b5257fe5b602002602001018190525060405180604001604052807f2c4ea1d45c1c7bd9a945ebb4ae56ed0c20bf893b727a9328b964924c1bda2b6a81526020017f0d641d3480b2d8352981000c07467bb5bbb199833e9599490da809dbe2961a488152508160800151600381518110610bc357fe5b602002602001018190525060405180604001604052807f2b611a9677c7fc7233cbc41fda939f87343ec85b7f344a35875132a5e152cc0d81526020017f1e6cfceccf9be63bf06e1a9f68e870c812218cdcbb23f2a188ac08f4c5c7c94e8152508160800151600481518110610c3457fe5b602002602001018190525060405180604001604052807f0dfc7d2a8db30f726d0f2c9e1d184dace13ea3596b3e3894afe88b54e9518d6781526020017f1112b22028d4da5adb819654f3d9662d067042222af0acea074095062faa064e8152508160800151600581518110610ca557fe5b602002602001018190525060405180604001604052807f0bdaf972d95d457bb9ecf603fb86d6d23a627b1a7911bd3723bd7401ae3fbafb81526020017f07e6d17dd3211be7a0e3aa1e62873c7546628f44fdf281e9ed2fbbb2a5cefafc8152508160800151600681518110610d1657fe5b602002602001018190525060405180604001604052807f02ebc7a982b55dfecdb6fbaa2d8ffa8b028de1d67fcf9bbd370279a7e117dc0e81526020017f0aa37c46df27f5e93fe7901d9053ef3385c7227e9c35b31dc2d065ee583bc6a08152508160800151600781518110610d8757fe5b602002602001018190525060405180604001604052807f141f1c70c641f3be50673dbd2affcad8450b709d1da506e62d9f4d2d3e077e5a81526020017f0f8fe0387357e40b3a59e01c0a579478d622b415083a19ea3cd9463ac243655b8152508160800151600881518110610df857fe5b602002602001018190525060405180604001604052807f0fc0e4a747ac47f60cacdc2e40158a242847adade4c8888e43e53cc81328ddab81526020017f18d3b57666a512a4ede9734875d9c114604e1c605acd5920bb722a892f9be0928152508160800151600981518110610e6957fe5b602002602001018190525090565b610e7f61166e565b610e87611688565b836000015181600060038110610e9957fe5b602002018181525050836020015181600160038110610eb457fe5b6020020181815250508281600260038110610ecb57fe5b602002018181525050600060608360808460076107d05a03fa90508060008114610ef457610ef6565bfe5b5080610f6a576040517f08c379a00000000000000000000000000000000000000000000000000000000081526004018080602001828103825260128152602001807f70616972696e672d6d756c2d6661696c6564000000000000000000000000000081525060200191505060405180910390fd5b505092915050565b610f7a61166e565b610f826116aa565b836000015181600060048110610f9457fe5b602002018181525050836020015181600160048110610faf57fe5b602002018181525050826000015181600260048110610fca57fe5b602002018181525050826020015181600360048110610fe557fe5b602002018181525050600060608360c08460066107d05a03fa9050806000811461100e57611010565bfe5b5080611084576040517f08c379a00000000000000000000000000000000000000000000000000000000081526004018080602001828103825260128152602001807f70616972696e672d6164642d6661696c6564000000000000000000000000000081525060200191505060405180910390fd5b505092915050565b61109461166e565b60007f30644e72e131a029b85045b68181585d97816a916871ca8d3c208c16d87cfd479050600083600001511480156110d1575060008360200151145b156110f5576040518060400160405280600081526020016000815250915050611121565b6040518060400160405280846000015181526020018285602001518161111757fe5b0683038152509150505b919050565b60006060600467ffffffffffffffff8111801561114257600080fd5b5060405190808252806020026020018201604052801561117c57816020015b61116961166e565b8152602001906001900390816111615790505b5090506060600467ffffffffffffffff8111801561119957600080fd5b506040519080825280602002602001820160405280156111d357816020015b6111c06116cc565b8152602001906001900390816111b85790505b5090508a826000815181106111e457fe5b602002602001018190525088826001815181106111fd57fe5b6020026020010181905250868260028151811061121657fe5b6020026020010181905250848260038151811061122f57fe5b6020026020010181905250898160008151811061124857fe5b6020026020010181905250878160018151811061126157fe5b6020026020010181905250858160028151811061127a57fe5b6020026020010181905250838160038151811061129357fe5b60200260200101819052506112a882826112b8565b9250505098975050505050505050565b60008151835114611331576040517f08c379a00000000000000000000000000000000000000000000000000000000081526004018080602001828103825260168152602001807f70616972696e672d6c656e677468732d6661696c65640000000000000000000081525060200191505060405180910390fd5b600083519050600060068202905060608167ffffffffffffffff8111801561135857600080fd5b506040519080825280602002602001820160405280156113875781602001602082028036833780820191505090505b50905060008090505b8381101561152d578681815181106113a457fe5b6020026020010151600001518260006006840201815181106113c257fe5b6020026020010181815250508681815181106113da57fe5b6020026020010151602001518260016006840201815181106113f857fe5b60200260200101818152505085818151811061141057fe5b60200260200101516000015160006002811061142857fe5b602002015182600260068402018151811061143f57fe5b60200260200101818152505085818151811061145757fe5b60200260200101516000015160016002811061146f57fe5b602002015182600360068402018151811061148657fe5b60200260200101818152505085818151811061149e57fe5b6020026020010151602001516000600281106114b657fe5b60200201518260046006840201815181106114cd57fe5b6020026020010181815250508581815181106114e557fe5b6020026020010151602001516001600281106114fd57fe5b602002015182600560068402018151811061151457fe5b6020026020010181815250508080600101915050611390565b506115366116f2565b6000602082602086026020860160086107d05a03fa9050806000811461155b5761155d565bfe5b50806115d1576040517f08c379a00000000000000000000000000000000000000000000000000000000081526004018080602001828103825260158152602001807f70616972696e672d6f70636f64652d6661696c6564000000000000000000000081525060200191505060405180910390fd5b6000826000600181106115e057fe5b602002015114159550505050505092915050565b604051806060016040528061160761166e565b81526020016116146116cc565b815260200161162161166e565b81525090565b6040518060a0016040528061163a61166e565b81526020016116476116cc565b81526020016116546116cc565b81526020016116616116cc565b8152602001606081525090565b604051806040016040528060008152602001600081525090565b6040518060600160405280600390602082028036833780820191505090505090565b6040518060800160405280600490602082028036833780820191505090505090565b60405180604001604052806116df611714565b81526020016116ec611714565b81525090565b6040518060200160405280600190602082028036833780820191505090505090565b604051806040016040528060029060208202803683378082019150509050509056fea264697066735822122047b34afcf744c2c167a60b15525e9aa854475b2d68b80e7274a5f6296b1da04364736f6c634300060b0033",
  "devdoc": {
    "kind": "dev",
    "methods": {
      "verifyProof(uint256[2],uint256[2][2],uint256[2],uint256[9])": {
        "returns": {
          "r": " bool true if proof is valid"
        }
      }
    },
    "version": 1
  },
  "userdoc": {
    "kind": "user",
    "methods": {},
    "version": 1
  },
  "storageLayout": {
    "storage": [],
    "types": null
  }
}