{
  "address": "0xBA635a7134599D4d36aBe206b15c7dA0D86F31F9",
  "abi": [
    {
      "anonymous": false,
      "inputs": [
        {
          "indexed": true,
          "internalType": "bool",
          "name": "isVerified",
          "type": "bool"
        },
        {
          "indexed": true,
          "internalType": "address",
          "name": "user",
          "type": "address"
        },
        {
          "indexed": true,
          "internalType": "uint256[2]",
          "name": "input",
          "type": "uint256[2]"
        }
      ],
      "name": "IsVerified",
      "type": "event"
    },
    {
      "inputs": [
        {
          "internalType": "uint256[2]",
          "name": "a",
          "type": "uint256[2]"
        },
        {
          "internalType": "uint256[2][2]",
          "name": "b",
          "type": "uint256[2][2]"
        },
        {
          "internalType": "uint256[2]",
          "name": "c",
          "type": "uint256[2]"
        },
        {
          "internalType": "uint256[2]",
          "name": "input",
          "type": "uint256[2]"
        }
      ],
      "name": "verifyProof",
      "outputs": [
        {
          "internalType": "bool",
          "name": "r",
          "type": "bool"
        }
      ],
      "stateMutability": "nonpayable",
      "type": "function"
    }
  ],
  "transactionHash": "0xff9f56eaaa6124336025551798024c5f4774f251d34120605d96b90e8cb0f9bf",
  "args": [],
  "numDeployments": 1,
  "solcInputHash": "93efe1962210a330473b509a5610cf21",
  "bytecode": "0x608060405234801561001057600080fd5b50611453806100206000396000f3fe608060405234801561001057600080fd5b506004361061002b5760003560e01c8063f5c9d69e14610030575b600080fd5b61018f600480360361014081101561004757600080fd5b8101908080604001906002806020026040519081016040528092919082600260200280828437600081840152601f19601f82011690508083019250505050505091929192908060800190600280602002604051908101604052809291906000905b828210156100fc578382604002016002806020026040519081016040528092919082600260200280828437600081840152601f19601f820116905080830192505050505050815260200190600101906100a8565b50505050919291929080604001906002806020026040519081016040528092919082600260200280828437600081840152601f19601f820116905080830192505050505050919291929080604001906002806020026040519081016040528092919082600260200280828437600081840152601f19601f82011690508083019250505050505091929192905050506101a9565b604051808215151515815260200191505060405180910390f35b60006101b36112db565b6040518060400160405280876000600281106101cb57fe5b60200201518152602001876001600281106101e257fe5b60200201518152508160000181905250604051806040016040528060405180604001604052808860006002811061021557fe5b602002015160006002811061022657fe5b602002015181526020018860006002811061023d57fe5b602002015160016002811061024e57fe5b6020020151815250815260200160405180604001604052808860016002811061027357fe5b602002015160006002811061028457fe5b602002015181526020018860016002811061029b57fe5b60200201516001600281106102ac57fe5b602002015181525081525081602001819052506040518060400160405280856000600281106102d757fe5b60200201518152602001856001600281106102ee57fe5b602002015181525081604001819052506060600267ffffffffffffffff8111801561031857600080fd5b506040519080825280602002602001820160405280156103475781602001602082028036833780820191505090505b50905060008090505b600281101561038f5784816002811061036557fe5b602002015182828151811061037657fe5b6020026020010181815250508080600101915050610350565b50600061039c82846104c6565b141561043257836040518082600260200280838360005b838110156103ce5780820151818401526020810190506103b3565b5050505090500191505060405180910390203373ffffffffffffffffffffffffffffffffffffffff16600115157f82e066a33b3040747dcde51a9924250e524b3339803bcb9987b255f2d4bce35d60405160405180910390a46001925050506104be565b836040518082600260200280838360005b8381101561045e578082015181840152602081019050610443565b5050505090500191505060405180910390203373ffffffffffffffffffffffffffffffffffffffff16600015157f82e066a33b3040747dcde51a9924250e524b3339803bcb9987b255f2d4bce35d60405160405180910390a46000925050505b949350505050565b6000807f30644e72e131a029b85045b68181585d2833e84879b9709143e1f593f000000190506104f461130e565b6104fc6106fa565b905080608001515160018651011461057c576040517f08c379a00000000000000000000000000000000000000000000000000000000081526004018080602001828103825260128152602001807f76657269666965722d6261642d696e707574000000000000000000000000000081525060200191505060405180910390fd5b610584611355565b6040518060400160405280600081526020016000815250905060008090505b865181101561068357838782815181106105b957fe5b602002602001015110610634576040517f08c379a000000000000000000000000000000000000000000000000000000000815260040180806020018281038252601f8152602001807f76657269666965722d6774652d736e61726b2d7363616c61722d6669656c640081525060200191505060405180910390fd5b6106748261066f8560800151600185018151811061064e57fe5b60200260200101518a858151811061066257fe5b6020026020010151610b5e565b610c59565b915080806001019150506105a3565b506106a681836080015160008151811061069957fe5b6020026020010151610c59565b90506106dc6106b88660000151610d73565b8660200151846000015185602001518587604001518b604001518960600151610e0d565b6106ec57600193505050506106f4565b600093505050505b92915050565b61070261130e565b60405180604001604052807f2d4d9aa7e302d9df41749d5507949d05dbea33fbb16c643b22f599a2be6df2e281526020017f14bedd503c37ceb061d8ec60209fe345ce89830a19230301f076caff004d19268152508160000181905250604051806040016040528060405180604001604052807f0967032fcbf776d1afc985f88877f182d38480a653f2decaa9794cbc3bf3060c81526020017f0e187847ad4c798374d0d6732bf501847dd68bc0e071241e0213bc7fc13db7ab815250815260200160405180604001604052807f304cfbd1e08a704a99f5e847d93f8c3caafddec46b7a0d379da69a4d112346a781526020017f1739c1b1a457a8c7313123d24d2f9192f896b7c63eea05a9d57f06547ad0cec88152508152508160200181905250604051806040016040528060405180604001604052807f198e9393920d483a7260bfb731fb5d25f1aa493335a9e71297e485b7aef312c281526020017f1800deef121f1e76426a00665e5c4479674322d4f75edadd46debd5cd992f6ed815250815260200160405180604001604052807f090689d0585ff075ec9e99ad690c3395bc4b313370b38ef355acdadcd122975b81526020017f12c85ea5db8c6deb4aab71808dcb408fe3d1e7690c43d37b4ce6cc0166fa7daa8152508152508160400181905250604051806040016040528060405180604001604052807f198e9393920d483a7260bfb731fb5d25f1aa493335a9e71297e485b7aef312c281526020017f1800deef121f1e76426a00665e5c4479674322d4f75edadd46debd5cd992f6ed815250815260200160405180604001604052807f090689d0585ff075ec9e99ad690c3395bc4b313370b38ef355acdadcd122975b81526020017f12c85ea5db8c6deb4aab71808dcb408fe3d1e7690c43d37b4ce6cc0166fa7daa8152508152508160600181905250600367ffffffffffffffff811180156109c657600080fd5b50604051908082528060200260200182016040528015610a0057816020015b6109ed611355565b8152602001906001900390816109e55790505b50816080018190525060405180604001604052807f1bda9ec0af80376f75690d9027974bbad2327f04df2ad4477005fb1280eedc9b81526020017f17e1e132bf6f1518feb6cade91f943eb3058b529879f0fc9cc02d467f7a3426b8152508160800151600081518110610a6f57fe5b602002602001018190525060405180604001604052807e57c121edb35e334576ab6d9f1fa0ced2fd8da76c49e9251dc1f7307a39d58681526020017f11a99992e38ac4cceb371d65e8b405e64cf60171c688148aa00d0f1dc44910b18152508160800151600181518110610adf57fe5b602002602001018190525060405180604001604052807f1c97b4708b337a9e7f6d7ebbe62e43f4f572df473b0e2cc91fd9e8473a51393d81526020017f0f3aea0cf9efdd164f7c5fb08b7b10da1fc8864b304d80bb2f6b1a7fc8b325a88152508160800151600281518110610b5057fe5b602002602001018190525090565b610b66611355565b610b6e61136f565b836000015181600060038110610b8057fe5b602002018181525050836020015181600160038110610b9b57fe5b6020020181815250508281600260038110610bb257fe5b602002018181525050600060608360808460076107d05a03fa90508060008114610bdb57610bdd565bfe5b5080610c51576040517f08c379a00000000000000000000000000000000000000000000000000000000081526004018080602001828103825260128152602001807f70616972696e672d6d756c2d6661696c6564000000000000000000000000000081525060200191505060405180910390fd5b505092915050565b610c61611355565b610c69611391565b836000015181600060048110610c7b57fe5b602002018181525050836020015181600160048110610c9657fe5b602002018181525050826000015181600260048110610cb157fe5b602002018181525050826020015181600360048110610ccc57fe5b602002018181525050600060608360c08460066107d05a03fa90508060008114610cf557610cf7565bfe5b5080610d6b576040517f08c379a00000000000000000000000000000000000000000000000000000000081526004018080602001828103825260128152602001807f70616972696e672d6164642d6661696c6564000000000000000000000000000081525060200191505060405180910390fd5b505092915050565b610d7b611355565b60007f30644e72e131a029b85045b68181585d97816a916871ca8d3c208c16d87cfd47905060008360000151148015610db8575060008360200151145b15610ddc576040518060400160405280600081526020016000815250915050610e08565b60405180604001604052808460000151815260200182856020015181610dfe57fe5b0683038152509150505b919050565b60006060600467ffffffffffffffff81118015610e2957600080fd5b50604051908082528060200260200182016040528015610e6357816020015b610e50611355565b815260200190600190039081610e485790505b5090506060600467ffffffffffffffff81118015610e8057600080fd5b50604051908082528060200260200182016040528015610eba57816020015b610ea76113b3565b815260200190600190039081610e9f5790505b5090508a82600081518110610ecb57fe5b60200260200101819052508882600181518110610ee457fe5b60200260200101819052508682600281518110610efd57fe5b60200260200101819052508482600381518110610f1657fe5b60200260200101819052508981600081518110610f2f57fe5b60200260200101819052508781600181518110610f4857fe5b60200260200101819052508581600281518110610f6157fe5b60200260200101819052508381600381518110610f7a57fe5b6020026020010181905250610f8f8282610f9f565b9250505098975050505050505050565b60008151835114611018576040517f08c379a00000000000000000000000000000000000000000000000000000000081526004018080602001828103825260168152602001807f70616972696e672d6c656e677468732d6661696c65640000000000000000000081525060200191505060405180910390fd5b600083519050600060068202905060608167ffffffffffffffff8111801561103f57600080fd5b5060405190808252806020026020018201604052801561106e5781602001602082028036833780820191505090505b50905060008090505b838110156112145786818151811061108b57fe5b6020026020010151600001518260006006840201815181106110a957fe5b6020026020010181815250508681815181106110c157fe5b6020026020010151602001518260016006840201815181106110df57fe5b6020026020010181815250508581815181106110f757fe5b60200260200101516000015160006002811061110f57fe5b602002015182600260068402018151811061112657fe5b60200260200101818152505085818151811061113e57fe5b60200260200101516000015160016002811061115657fe5b602002015182600360068402018151811061116d57fe5b60200260200101818152505085818151811061118557fe5b60200260200101516020015160006002811061119d57fe5b60200201518260046006840201815181106111b457fe5b6020026020010181815250508581815181106111cc57fe5b6020026020010151602001516001600281106111e457fe5b60200201518260056006840201815181106111fb57fe5b6020026020010181815250508080600101915050611077565b5061121d6113d9565b6000602082602086026020860160086107d05a03fa9050806000811461124257611244565bfe5b50806112b8576040517f08c379a00000000000000000000000000000000000000000000000000000000081526004018080602001828103825260158152602001807f70616972696e672d6f70636f64652d6661696c6564000000000000000000000081525060200191505060405180910390fd5b6000826000600181106112c757fe5b602002015114159550505050505092915050565b60405180606001604052806112ee611355565b81526020016112fb6113b3565b8152602001611308611355565b81525090565b6040518060a00160405280611321611355565b815260200161132e6113b3565b815260200161133b6113b3565b81526020016113486113b3565b8152602001606081525090565b604051806040016040528060008152602001600081525090565b6040518060600160405280600390602082028036833780820191505090505090565b6040518060800160405280600490602082028036833780820191505090505090565b60405180604001604052806113c66113fb565b81526020016113d36113fb565b81525090565b6040518060200160405280600190602082028036833780820191505090505090565b604051806040016040528060029060208202803683378082019150509050509056fea2646970667358221220c5251f9e2fbaf60a80a3b93cef56fc46169e8e68a74948698b0debb1a0208fd564736f6c634300060b0033",
  "devdoc": {
    "kind": "dev",
    "methods": {
      "verifyProof(uint256[2],uint256[2][2],uint256[2],uint256[2])": {
        "returns": {
          "r": " bool true if proof is valid"
        }
      }
    },
    "version": 1
  },
  "userdoc": {
    "kind": "user",
    "methods": {},
    "version": 1
  },
  "storageLayout": {
    "storage": [],
    "types": null
  }
}