{
  "address": "0xDEc4bD77b257E346F2fa8E52C4B91482C9081e6b",
  "abi": [
    {
      "anonymous": false,
      "inputs": [
        {
          "indexed": true,
          "internalType": "bool",
          "name": "isVerifie",
          "type": "bool"
        },
        {
          "indexed": true,
          "internalType": "address",
          "name": "user",
          "type": "address"
        },
        {
          "indexed": true,
          "internalType": "uint256[14]",
          "name": "input",
          "type": "uint256[14]"
        }
      ],
      "name": "IsVerified",
      "type": "event"
    },
    {
      "inputs": [
        {
          "internalType": "uint256[2]",
          "name": "a",
          "type": "uint256[2]"
        },
        {
          "internalType": "uint256[2][2]",
          "name": "b",
          "type": "uint256[2][2]"
        },
        {
          "internalType": "uint256[2]",
          "name": "c",
          "type": "uint256[2]"
        },
        {
          "internalType": "uint256[14]",
          "name": "input",
          "type": "uint256[14]"
        }
      ],
      "name": "verifyProof",
      "outputs": [
        {
          "internalType": "bool",
          "name": "r",
          "type": "bool"
        }
      ],
      "stateMutability": "nonpayable",
      "type": "function"
    }
  ],
  "transactionHash": "0x669f317bfffea93e094a7dae5ed2eb08f1c4faa25abe2a8a68cf69ed4083ea2d",
  "args": [],
  "numDeployments": 1,
  "solcInputHash": "0b56518243ceef4c4b50c6c5f968a603",
  "bytecode": "0x608060405234801561001057600080fd5b5061199f806100206000396000f3fe608060405234801561001057600080fd5b506004361061002b5760003560e01c80638d15f88f14610030575b600080fd5b61019060048036036102c081101561004757600080fd5b8101908080604001906002806020026040519081016040528092919082600260200280828437600081840152601f19601f82011690508083019250505050505091929192908060800190600280602002604051908101604052809291906000905b828210156100fc578382604002016002806020026040519081016040528092919082600260200280828437600081840152601f19601f820116905080830192505050505050815260200190600101906100a8565b50505050919291929080604001906002806020026040519081016040528092919082600260200280828437600081840152601f19601f8201169050808301925050505050509192919290806101c00190600e806020026040519081016040528092919082600e60200280828437600081840152601f19601f82011690508083019250505050505091929192905050506101aa565b604051808215151515815260200191505060405180910390f35b60006101b4611827565b6040518060400160405280876000600281106101cc57fe5b60200201518152602001876001600281106101e357fe5b60200201518152508160000181905250604051806040016040528060405180604001604052808860006002811061021657fe5b602002015160006002811061022757fe5b602002015181526020018860006002811061023e57fe5b602002015160016002811061024f57fe5b6020020151815250815260200160405180604001604052808860016002811061027457fe5b602002015160006002811061028557fe5b602002015181526020018860016002811061029c57fe5b60200201516001600281106102ad57fe5b602002015181525081525081602001819052506040518060400160405280856000600281106102d857fe5b60200201518152602001856001600281106102ef57fe5b602002015181525081604001819052506060600e67ffffffffffffffff8111801561031957600080fd5b506040519080825280602002602001820160405280156103485781602001602082028036833780820191505090505b50905060008090505b600e811015610390578481600e811061036657fe5b602002015182828151811061037757fe5b6020026020010181815250508080600101915050610351565b50600061039d82846104c7565b141561043357836040518082600e60200280838360005b838110156103cf5780820151818401526020810190506103b4565b5050505090500191505060405180910390203373ffffffffffffffffffffffffffffffffffffffff16600115157fb118d1e1d9a5e60e0c02aa6942b90efc7194612d509dacf0bd766e7898dacd6f60405160405180910390a46001925050506104bf565b836040518082600e60200280838360005b8381101561045f578082015181840152602081019050610444565b5050505090500191505060405180910390203373ffffffffffffffffffffffffffffffffffffffff16600015157fb118d1e1d9a5e60e0c02aa6942b90efc7194612d509dacf0bd766e7898dacd6f60405160405180910390a46000925050505b949350505050565b6000807f30644e72e131a029b85045b68181585d2833e84879b9709143e1f593f000000190506104f561185a565b6104fd6106fb565b905080608001515160018651011461057d576040517f08c379a00000000000000000000000000000000000000000000000000000000081526004018080602001828103825260128152602001807f76657269666965722d6261642d696e707574000000000000000000000000000081525060200191505060405180910390fd5b6105856118a1565b6040518060400160405280600081526020016000815250905060008090505b865181101561068457838782815181106105ba57fe5b602002602001015110610635576040517f08c379a000000000000000000000000000000000000000000000000000000000815260040180806020018281038252601f8152602001807f76657269666965722d6774652d736e61726b2d7363616c61722d6669656c640081525060200191505060405180910390fd5b610675826106708560800151600185018151811061064f57fe5b60200260200101518a858151811061066357fe5b60200260200101516110aa565b6111a5565b915080806001019150506105a4565b506106a781836080015160008151811061069a57fe5b60200260200101516111a5565b90506106dd6106b986600001516112bf565b8660200151846000015185602001518587604001518b604001518960600151611359565b6106ed57600193505050506106f5565b600093505050505b92915050565b61070361185a565b60405180604001604052807f2d4d9aa7e302d9df41749d5507949d05dbea33fbb16c643b22f599a2be6df2e281526020017f14bedd503c37ceb061d8ec60209fe345ce89830a19230301f076caff004d19268152508160000181905250604051806040016040528060405180604001604052807f0967032fcbf776d1afc985f88877f182d38480a653f2decaa9794cbc3bf3060c81526020017f0e187847ad4c798374d0d6732bf501847dd68bc0e071241e0213bc7fc13db7ab815250815260200160405180604001604052807f304cfbd1e08a704a99f5e847d93f8c3caafddec46b7a0d379da69a4d112346a781526020017f1739c1b1a457a8c7313123d24d2f9192f896b7c63eea05a9d57f06547ad0cec88152508152508160200181905250604051806040016040528060405180604001604052807f198e9393920d483a7260bfb731fb5d25f1aa493335a9e71297e485b7aef312c281526020017f1800deef121f1e76426a00665e5c4479674322d4f75edadd46debd5cd992f6ed815250815260200160405180604001604052807f090689d0585ff075ec9e99ad690c3395bc4b313370b38ef355acdadcd122975b81526020017f12c85ea5db8c6deb4aab71808dcb408fe3d1e7690c43d37b4ce6cc0166fa7daa8152508152508160400181905250604051806040016040528060405180604001604052807f198e9393920d483a7260bfb731fb5d25f1aa493335a9e71297e485b7aef312c281526020017f1800deef121f1e76426a00665e5c4479674322d4f75edadd46debd5cd992f6ed815250815260200160405180604001604052807f090689d0585ff075ec9e99ad690c3395bc4b313370b38ef355acdadcd122975b81526020017f12c85ea5db8c6deb4aab71808dcb408fe3d1e7690c43d37b4ce6cc0166fa7daa8152508152508160600181905250600f67ffffffffffffffff811180156109c757600080fd5b50604051908082528060200260200182016040528015610a0157816020015b6109ee6118a1565b8152602001906001900390816109e65790505b50816080018190525060405180604001604052807f23dd9a1306ddd295fa712491ad4236051d8933d7b1154c7acbf68ec6e72960ba81526020017f1d72f7540cc8c3517870085f4c4fadec522e55f0aa92fa8da66bb89166b157b18152508160800151600081518110610a7057fe5b602002602001018190525060405180604001604052807ebaf063604d5bb39aaa56627cbc826b17b5472aec4732fda4f2a59a5e8116b181526020017f2eea25a5fb4adfc2597d14cb1c5208968c89cc85c69f552e517e665aeafe93558152508160800151600181518110610ae057fe5b602002602001018190525060405180604001604052807f2658c6f8e7d5af6d0b1bf9bc4bd262a4b624bc762fd86af3b5ffe83ce21d4b4b81526020017f0a2009c87861ce45695c61e0e52f222070ee4a2bce6395a933908a43c60138ed8152508160800151600281518110610b5157fe5b602002602001018190525060405180604001604052807f25dd2bb3346facb32856bd51ca4a19fa67d2f6b7261b376b324cfc6ad9308bea81526020017f04525d265b19e9a9947c11cfd940f993e91e41d180fbdee953e02d593db2b78b8152508160800151600381518110610bc257fe5b602002602001018190525060405180604001604052807f1233a2cb7ce000c491a9e3a9b493b0f1923dcf28f17184eb37aadccc388e890d81526020017f2f873b89150538c5a88e41c4d7f14ed73b65137295ee60e962f30522630ab59c8152508160800151600481518110610c3357fe5b602002602001018190525060405180604001604052807f177679258f5cf371da2e3fb40d7d547abe443e4b78afb019dadda56b59296be281526020017f2e8c9df35ae0b765b0efde740cc1abb46a0464b3c6b118f29802f888ebd8a3668152508160800151600581518110610ca457fe5b602002602001018190525060405180604001604052807f18c63be34ce60be6861de302bbb7d254b722b615f137bb99b17aedf6eecb625481526020017f0df26f35d147eacc97235c1d687a43e59e98221d42e034a17cd2113111aedadc8152508160800151600681518110610d1557fe5b602002602001018190525060405180604001604052807f12ad9bada9ec4d483b570e5f4d419a26510eb4db10fef2860bef7742f50e0ccb81526020017f21ce34907bd73f447b5e834487fbc7ce5fb9d712ba2ce4152add03688f9523438152508160800151600781518110610d8657fe5b602002602001018190525060405180604001604052807f29185e539e6f98336ef6eb1c5e9262287a56ded089146c4a1bc0f2f5595df84f81526020017f24e4c5a27fd40254df6992f7576e83599cbe1d1fefd35c60105eee8c4a6c51f48152508160800151600881518110610df757fe5b602002602001018190525060405180604001604052807f1946b3047205aa06306f13e821b2c20f3f1e3127629aa52908d99a8d64828ee781526020017f20b2154a76fcd27f766508baab45cc21cf32e9443d9b58b895e3b778fa0adc8a8152508160800151600981518110610e6857fe5b602002602001018190525060405180604001604052807f2afbb069c0f15f2fc36d75bc1fe86db1e7e25fab686a62dda3eb66e029cf8d3581526020017f175522bb6593a2fe0a77f04bd2e5dfe9a63e734c01e14be6f134099a7ced20a48152508160800151600a81518110610ed957fe5b602002602001018190525060405180604001604052807f0d4bd7c6887d18fab7af0c66010725dc565c1d54e4ebfcc386e02402dbdaf45981526020017f21fb43b0e20ec6387c974cf4fbcd3b341e60e44f0f6e1468935cdcf5197226e38152508160800151600b81518110610f4a57fe5b602002602001018190525060405180604001604052807f1b666a36bc3b882e0fcdc9c15cb4cf3e57f3727a892964f643d5a8aead94b4e981526020017e43a76b4bdd61e2b947770ac671236acf5b65069ab33372d04e1c3d13a2b7408152508160800151600c81518110610fba57fe5b602002602001018190525060405180604001604052807f2b437f1c9d4a6e565c43adec2e10ab4411587495b6dcb9c61833cce278a2fc1f81526020017f0b94a3b768907e095d595c20cbb5d3415b1ff3ff9dacc0b04588c83d3de138998152508160800151600d8151811061102b57fe5b602002602001018190525060405180604001604052807f094191eb6429edc12a22805e798b0596d4fcc17817a009c90d5eab6cd603a45a81526020017f0ea10c3367473c9f0c2bb55d41178c47c486571b4a971990b7b319317a753b708152508160800151600e8151811061109c57fe5b602002602001018190525090565b6110b26118a1565b6110ba6118bb565b8360000151816000600381106110cc57fe5b6020020181815250508360200151816001600381106110e757fe5b60200201818152505082816002600381106110fe57fe5b602002018181525050600060608360808460076107d05a03fa9050806000811461112757611129565bfe5b508061119d576040517f08c379a00000000000000000000000000000000000000000000000000000000081526004018080602001828103825260128152602001807f70616972696e672d6d756c2d6661696c6564000000000000000000000000000081525060200191505060405180910390fd5b505092915050565b6111ad6118a1565b6111b56118dd565b8360000151816000600481106111c757fe5b6020020181815250508360200151816001600481106111e257fe5b6020020181815250508260000151816002600481106111fd57fe5b60200201818152505082602001518160036004811061121857fe5b602002018181525050600060608360c08460066107d05a03fa9050806000811461124157611243565bfe5b50806112b7576040517f08c379a00000000000000000000000000000000000000000000000000000000081526004018080602001828103825260128152602001807f70616972696e672d6164642d6661696c6564000000000000000000000000000081525060200191505060405180910390fd5b505092915050565b6112c76118a1565b60007f30644e72e131a029b85045b68181585d97816a916871ca8d3c208c16d87cfd47905060008360000151148015611304575060008360200151145b15611328576040518060400160405280600081526020016000815250915050611354565b6040518060400160405280846000015181526020018285602001518161134a57fe5b0683038152509150505b919050565b60006060600467ffffffffffffffff8111801561137557600080fd5b506040519080825280602002602001820160405280156113af57816020015b61139c6118a1565b8152602001906001900390816113945790505b5090506060600467ffffffffffffffff811180156113cc57600080fd5b5060405190808252806020026020018201604052801561140657816020015b6113f36118ff565b8152602001906001900390816113eb5790505b5090508a8260008151811061141757fe5b6020026020010181905250888260018151811061143057fe5b6020026020010181905250868260028151811061144957fe5b6020026020010181905250848260038151811061146257fe5b6020026020010181905250898160008151811061147b57fe5b6020026020010181905250878160018151811061149457fe5b602002602001018190525085816002815181106114ad57fe5b602002602001018190525083816003815181106114c657fe5b60200260200101819052506114db82826114eb565b9250505098975050505050505050565b60008151835114611564576040517f08c379a00000000000000000000000000000000000000000000000000000000081526004018080602001828103825260168152602001807f70616972696e672d6c656e677468732d6661696c65640000000000000000000081525060200191505060405180910390fd5b600083519050600060068202905060608167ffffffffffffffff8111801561158b57600080fd5b506040519080825280602002602001820160405280156115ba5781602001602082028036833780820191505090505b50905060008090505b83811015611760578681815181106115d757fe5b6020026020010151600001518260006006840201815181106115f557fe5b60200260200101818152505086818151811061160d57fe5b60200260200101516020015182600160068402018151811061162b57fe5b60200260200101818152505085818151811061164357fe5b60200260200101516000015160006002811061165b57fe5b602002015182600260068402018151811061167257fe5b60200260200101818152505085818151811061168a57fe5b6020026020010151600001516001600281106116a257fe5b60200201518260036006840201815181106116b957fe5b6020026020010181815250508581815181106116d157fe5b6020026020010151602001516000600281106116e957fe5b602002015182600460068402018151811061170057fe5b60200260200101818152505085818151811061171857fe5b60200260200101516020015160016002811061173057fe5b602002015182600560068402018151811061174757fe5b60200260200101818152505080806001019150506115c3565b50611769611925565b6000602082602086026020860160086107d05a03fa9050806000811461178e57611790565bfe5b5080611804576040517f08c379a00000000000000000000000000000000000000000000000000000000081526004018080602001828103825260158152602001807f70616972696e672d6f70636f64652d6661696c6564000000000000000000000081525060200191505060405180910390fd5b60008260006001811061181357fe5b602002015114159550505050505092915050565b604051806060016040528061183a6118a1565b81526020016118476118ff565b81526020016118546118a1565b81525090565b6040518060a0016040528061186d6118a1565b815260200161187a6118ff565b81526020016118876118ff565b81526020016118946118ff565b8152602001606081525090565b604051806040016040528060008152602001600081525090565b6040518060600160405280600390602082028036833780820191505090505090565b6040518060800160405280600490602082028036833780820191505090505090565b6040518060400160405280611912611947565b815260200161191f611947565b81525090565b6040518060200160405280600190602082028036833780820191505090505090565b604051806040016040528060029060208202803683378082019150509050509056fea2646970667358221220d65c37204257107ed6c77c2e57dac1050ead29f5a4999bc616c15e2c7251368664736f6c634300060b0033",
  "devdoc": {
    "kind": "dev",
    "methods": {
      "verifyProof(uint256[2],uint256[2][2],uint256[2],uint256[14])": {
        "returns": {
          "r": " bool true if proof is valid"
        }
      }
    },
    "version": 1
  },
  "userdoc": {
    "kind": "user",
    "methods": {},
    "version": 1
  },
  "storageLayout": {
    "storage": [],
    "types": null
  }
}